{
  "contractName": "IdentityLedger",
  "abi": [
    {
      "inputs": [],
      "payable": false,
      "stateMutability": "nonpayable",
      "type": "constructor"
    },
    {
      "anonymous": false,
      "inputs": [
        {
          "indexed": false,
          "name": "_ipfsHash",
          "type": "string"
        },
        {
          "indexed": false,
          "name": "_address",
          "type": "address"
        }
      ],
      "name": "ipfsStored",
      "type": "event"
    },
    {
      "anonymous": false,
      "inputs": [
        {
          "indexed": false,
          "name": "response",
          "type": "string"
        }
      ],
      "name": "receivedIPFS",
      "type": "event"
    },
    {
      "constant": false,
      "inputs": [
        {
          "name": "_address",
          "type": "address"
        },
        {
          "name": "_ipfsHash",
          "type": "string"
        }
      ],
      "name": "sendIPFS",
      "outputs": [],
      "payable": false,
      "stateMutability": "nonpayable",
      "type": "function"
    },
    {
      "constant": false,
      "inputs": [],
      "name": "checkInbox",
      "outputs": [],
      "payable": false,
      "stateMutability": "nonpayable",
      "type": "function"
    }
  ],
  "bytecode": "0x608060405234801561001057600080fd5b5061062c806100206000396000f30060806040526004361061004c576000357c0100000000000000000000000000000000000000000000000000000000900463ffffffff1680635c23d56f146100515780636bfc70e214610068575b600080fd5b34801561005d57600080fd5b506100666100f1565b005b34801561007457600080fd5b506100ef600480360381019080803573ffffffffffffffffffffffffffffffffffffffff169060200190929190803590602001908201803590602001908080601f0160208091040260200160405190810160405280939291908181526020018383808284378201915050505050509192919290505050610346565b005b60606000803373ffffffffffffffffffffffffffffffffffffffff1673ffffffffffffffffffffffffffffffffffffffff1681526020019081526020016000208054600181600116156101000203166002900480601f0160208091040260200160405190810160405280929190818152602001828054600181600116156101000203166002900480156101c55780601f1061019a576101008083540402835291602001916101c5565b820191906000526020600020905b8154815290600101906020018083116101a857829003601f168201915b50505050509050600081511415610243577f1c233d3f112ffa835451fb621a241f18c42bbbeeb5b87869edf77882afb1497960405180806020018281038252600b8152602001807f456d70747920496e626f7800000000000000000000000000000000000000000081525060200191505060405180910390a1610343565b60206040519081016040528060008152506000803373ffffffffffffffffffffffffffffffffffffffff1673ffffffffffffffffffffffffffffffffffffffff16815260200190815260200160002090805190602001906102a592919061055b565b507f1c233d3f112ffa835451fb621a241f18c42bbbeeb5b87869edf77882afb14979816040518080602001828103825283818151815260200191508051906020019080838360005b838110156103085780820151818401526020810190506102ed565b50505050905090810190601f1680156103355780820380516001836020036101000a031916815260200191505b509250505060405180910390a15b50565b6000808373ffffffffffffffffffffffffffffffffffffffff1673ffffffffffffffffffffffffffffffffffffffff1681526020019081526020016000208054600181600116156101000203166002900480601f0160208091040260200160405190810160405280929190818152602001828054600181600116156101000203166002900480156104185780601f106103ed57610100808354040283529160200191610418565b820191906000526020600020905b8154815290600101906020018083116103fb57829003601f168201915b505050505060608190506000815114151561043257600080fd5b826000808673ffffffffffffffffffffffffffffffffffffffff1673ffffffffffffffffffffffffffffffffffffffff168152602001908152602001600020908051906020019061048492919061055b565b507ffcac1e0e9c5060a8b0ebffadc9ddedc166c4545eb9d46fcbd09196238e9ba2fe838560405180806020018373ffffffffffffffffffffffffffffffffffffffff1673ffffffffffffffffffffffffffffffffffffffff168152602001828103825284818151815260200191508051906020019080838360005b8381101561051a5780820151818401526020810190506104ff565b50505050905090810190601f1680156105475780820380516001836020036101000a031916815260200191505b50935050505060405180910390a150505050565b828054600181600116156101000203166002900490600052602060002090601f016020900481019282601f1061059c57805160ff19168380011785556105ca565b828001600101855582156105ca579182015b828111156105c95782518255916020019190600101906105ae565b5b5090506105d791906105db565b5090565b6105fd91905b808211156105f95760008160009055506001016105e1565b5090565b905600a165627a7a72305820bdd2625f29857b82235202ddec6085deed28581bd39aa6f929b22a41e4f405aa0029",
  "source": "pragma solidity ^0.4.23;\r\ncontract IdentityLedger {\r\n    mapping(address => string) identityLedger;\r\n    //mapping(address => mapping(address => string)) identityLedger;\r\n    event ipfsStored(string _ipfsHash, address _address);\r\n    event receivedIPFS(string response);\r\n    modifier notFull(string _string) {\r\n        bytes memory stringTest = bytes(_string);\r\n        require(stringTest.length == 0);\r\n        _;\r\n    }\r\n    constructor() public {}\r\n    function sendIPFS(address _address, string _ipfsHash)\r\n        public\r\n        notFull(identityLedger[_address])\r\n    {\r\n        identityLedger[_address] = _ipfsHash;\r\n        emit ipfsStored(_ipfsHash, _address);\r\n    }\r\n    function checkInbox() public {\r\n        string memory ipfs_hash = identityLedger[msg.sender];\r\n        if (bytes(ipfs_hash).length == 0) {\r\n            emit receivedIPFS(\"Empty Inbox\");\r\n        } else {\r\n            identityLedger[msg.sender] = \"\";\r\n            emit receivedIPFS(ipfs_hash);\r\n        }\r\n    }\r\n}\r\n",
  "sourcePath": "C:\\Users\\Stefan\\Desktop\\Bockchain\\project\\ipfs-ethereum-tutorial\\contracts\\IdentityLedger.sol",
  "compiler": {
    "name": "solc",
    "version": "0.4.23+commit.124ca40d.Emscripten.clang"
  },
  "schemaVersion": "3.0.23",
  "updatedAt": "2020-02-28T23:40:31.227Z",
  "networkType": "ethereum",
  "devdoc": {
    "methods": {}
  },
  "userdoc": {
    "methods": {}
  }
}